:020000040800F2
:1000000000000220892C0008FD030008FF030008FF
:1000100001040008030400080504000800000000B3
:1000200000000000000000000000000007040008BD
:1000300009040008000000000B0400080D0400087B
:10004000DD2C0008DD2C0008DD2C0008DD2C00086C
:10005000DD2C0008DD2C0008DD2C0008DD2C00085C
:10006000DD2C0008DD2C0008DD2C0008DD2C00084C
:10007000DD2C0008DD2C0008DD2C0008DD2C00083C
:10008000DD2C0008DD2C0008DD2C0008DD2C00082C
:10009000DD2C0008DD2C0008DD2C0008DD2C00081C
:1000A000DD2C0008DD2C0008DD2C0008DD2C00080C
:1000B000DD2C0008DD2C0008DD2C0008DD2C0008FC
:1000C000DD2C0008DD2C0008DD2C0008DD2C0008EC
:1000D000DD2C0008DD2C0008DD2C0008DD2C0008DC
:1000E000DD2C0008DD2C000800000000DD2C0008DD
:1000F000DD2C0008DD2C0008DD2C0008DD2C0008BC
:10010000DD2C0008DD2C0008DD2C0008DD2C0008AB
:10011000DD2C0008DD2C0008DD2C0008DD2C00089B
:10012000DD2C0008DD2C0008DD2C0008DD2C00088B
:10013000DD2C0008DD2C0008DD2C0008DD2C00087B
:1001400000000000000000000000000000000000AF
:10015000DD2C0008DD2C0008DD2C0008DD2C00085B
:10016000DD2C0008DD2C0008DD2C0008DD2C00084B
:10017000DD2C0008DD2C0008DD2C0008000000004C
:10018000DD2C0008DD2C0008DD2C0008DD2C00082B
:10019000DD2C0008DD2C0008DD2C0008DD2C00081B
:1001A000DD2C0008DD2C0008DD2C0008DD2C00080B
:1001B000DD2C0008DD2C0008DD2C0008DD2C0008FB
:1001C000DD2C0008DD2C0008DD2C0008DD2C0008EB
:1001D000DD2C0008DD2C0008DD2C0008DD2C0008DB
:1001E000DD2C0008DD2C0008DD2C0008DD2C0008CB
:1001F000DD2C0008DD2C0008DD2C0008DD2C0008BB
:10020000DD2C0008DD2C0008DD2C0008DD2C0008AA
:10021000DD2C0008DD2C0008DD2C0008DD2C00089A
:10022000DD2C0008DD2C0008DD2C0008000000009B
:10023000DD2C0008DD2C000800000000DD2C00088B
:10024000DD2C0008DD2C0008DD2C0008DD2C00086A
:10025000DD2C0008DD2C0008DD2C0008DD2C00085A
:10026000DD2C0008DD2C0008DD2C0008DD2C00084A
:10027000DD2C0008DD2C0008DD2C0008000000004B
:10028000DD2C0008DD2C0008DD2C0008000000003B
:0802900000000000DD2C000855
:1002980010B5054C237833B9044B13B10448AFF3B8
:1002A80000800123237010BD100000200000000012
:1002B800382D000808B5034B1BB103490348AFF3B9
:1002C800008008BD0000000014000020382D000840
:1002D80030B585B00024009401940294039400F092
:1002E800FBFC01238DF800308DF8014001941F229A
:1002F8008DF8082087228DF809208DF80A408DF89E
:100308000B408DF80C308DF80D308DF80E408DF8BF
:100318000F40684600F0FEFC042000F0EBFC05B03E
:1003280030BD72B6FEE7000000B59DB04C2200213A
:1003380009A802F0D0FC2022002101A802F0CBFC81
:10034800022002F02BFA00230093204BDA6A22F0F5
:100358000102DA62DB6A03F0010300931C4A936925
:1003680023F4404343F480439361936903F4404387
:100378000093009B164B9B6913F4005FFAD0154A53
:10038800936A23F0030393620223099301230C93D6
:1003980040230D930023129309A800F0E7FC88B9C5
:1003A8003F23019300230293039304930593069339
:1003B80007930893012101A801F02CF920B91DB079
:1003C8005DF804FBFFF7ADFFFFF7ABFF0004005833
:1003D800004802580044025808B5FFF779FF02F0B8
:1003E8002FFAFFF7A1FF00F095F800F0D1F900F01F
:1003F80061FBFEE7FEE7FEE7FEE7FEE7FEE7704784
:100408007047704708B502F049FA08BD82B0074B3B
:10041800D3F8F42042F00202C3F8F420D3F8F43001
:1004280003F002030193019B02B070470044025895
:10043800274AD2F8883043F47003C2F88830254B35
:100448001B6803F00F03062B06D8224A136823F013
:100458000F0343F0070313601F4B1A6842F00102B1
:100468001A6000221A6119681C4A0A401A60194B5E
:100478001B6813F0080F06D0164A136823F00F0301
:1004880043F007031360144B00229A61DA611A6281
:10049800134999621349D962134919635A639963D5
:1004A800DA6319645A64196821F4802119601A669C
:1004B8000E4B1B686FF30F03B3F1005F03D20C4BB5
:1004C8000122C3F808210B4B43F2D2021A6070478D
:1004D80000ED00E000200052004402587FEDF6EAEB
:1004E800000202020000FF01800201010010005C0E
:1004F8000080005100400052054AD36843F00203CF
:10050800D360034B5B6813F4005FFAD0704700BFF9
:10051800004802582DE9F04F8FB009AD0024099426
:100528006C60AC60EC602C61914BD3F8E02042F039
:100538001002C3F8E020D3F8E02002F01002009285
:10054800009AD3F8E02042F48072C3F8E020D3F890
:10055800E02002F480720192019AD3F8E02042F080
:100568002002C3F8E020D3F8E02002F02002029233
:10057800029AD3F8E02042F00102C3F8E020D3F851
:10058800E02002F001020392039AD3F8E02042F03F
:100598008002C3F8E020D3F8E02002F08002049241
:1005A800049AD3F8E02042F00202C3F8E020D3F81E
:1005B800E02002F002020592059AD3F8E02042F00A
:1005C8004002C3F8E020D3F8E02002F0400206928F
:1005D800069AD3F8E02042F00802C3F8E020D3F8E6
:1005E800E02002F008020792079AD3F8E02042F0D0
:1005F8000402C3F8E020D3F8E03003F004030893C2
:10060800089BDFF8849122468021484602F0C0F812
:100618004FF41063099302260A960B940C944FF03A
:100628000F0ACDF834A02946524801F0A1FF4FF631
:100638003F0309930A960B944FF00308CDF83080D6
:100648000C270D9729464C4801F092FF2C2309935B
:100658000A960B94CDF830800D972946484601F04C
:1006680087FF502309930A960B940C94CDF834A075
:100678002946484601F07CFF48F2371309930A9649
:100688000B94CDF830800D9729463C4801F070FF57
:100698004FF6837309930A960B94CDF830800D9723
:1006A8002946374801F064FF802309934FF0010B76
:1006B800CDF828B00B940C942946484601F058FF11
:1006C8004CF2037309930A960B94CDF830800D977A
:1006D800A9F580592946484601F04AFF082309939D
:1006E8000A960B940C94CDF834A02946234801F0BF
:1006F8003FFF4FF4F85309930A960B94CDF83080D6
:100708000D9729461F4801F033FF4FF4C063099342
:100718000A960B940C9407230D93DFF870A02946D2
:10072800504601F025FF4FF4C05309930A960B94E5
:100738000C940A230D932946504601F019FFCDF871
:1007480024B00A960B940C9405230D932946094866
:1007580001F00EFF042309930A960B94CDF830801C
:100768000D972946484601F003FF0FB0BDE8F08F0A
:100778000044025800200258001402580018025879
:100788000010025800080258001C025800000258C5
:1007980010B59AB03424224600210DEB040002F073
:1007A8009AFA22460021684602F095FA3348344BFB
:1007B8000360002343608360C360036107224261D2
:1007C800032282610E22C2610522026240F28E2259
:1007D800426240F2E51282624FF42572C26240F230
:1007E800E712026380F8343080F8353080F836300C
:1007F80002F032F9002838D100220D920E920F92A1
:1008080010921192129213924FF48063149305235D
:1008180015931692179218928DF864208DF865201A
:100828008DF866200DA9154802F074F900BB002365
:1008380000930193029303930493059306934FF453
:10084800806207920522089209930A930B938DF808
:1008580030308DF831308DF8323001226946074842
:1008680002F058F938B91AB010BDFFF75AFDC3E7BE
:10087800FFF757FDDBE7FFF754FDF4E72C000020F6
:10088800001000502DE9F041C0B0044600213B9112
:100898003C913D913E913F91C0220AA802F01BFA7B
:1008A80022687A4B9A4202D040B0BDE8F0814FF0FE
:1008B80000520023CDE90A2301231493042315933E
:1008C800022316931793062318934FF44063199342
:1008D8000AA801F0F1F8002840F0D5806C4BD3F855
:1008E800E42042F00802C3F8E420D3F8E42002F040
:1008F80008020192019AD3F8E02042F01002C3F8EE
:10090800E020D3F8E02002F010020292029AD3F815
:10091800E02042F48072C3F8E020D3F8E02002F42B
:1009280080720392039AD3F8E02042F02002C3F8C1
:10093800E020D3F8E02002F020020492049AD3F8D1
:10094800E02042F00102C3F8E020D3F8E02002F0F2
:1009580001020592059AD3F8E02042F00202C3F89A
:10096800E020D3F8E02002F002020692069AD3F8BB
:10097800E02042F08002C3F8E020D3F8E02002F043
:1009880080020792079AD3F8E02042F04002C3F8A9
:10099800E020D3F8E02002F040020892089AD3F849
:1009A800E02042F00802C3F8E020D3F8E03003F07A
:1009B80008030993099B60233B9302263C96002475
:1009C8003D943E940E273F973BAD2946314801F0B0
:1009D800CFFD40F2F6633B933C963D943E943F979F
:1009E80029462D4801F0C4FD4FF480633B933C96A3
:1009F8003D943E943F972946284801F0B9FD0423C9
:100A08003B933C963D943E943F97DFF8A48029465B
:100A1800404601F0ADFD4FF400633B933C963D9496
:100A28003E943F9729461E4801F0A2FD4FF47F43AC
:100A38003B933C963D943E943F972946194801F0D4
:100A480097FD47F2C0033B933C963D943E943F97F5
:100A58002946154801F08CFD4FF480733B933C9672
:100A68003D943E940D233F932946404601F080FD76
:100A780040233B933C963D943E943F9729460B4830
:100A880001F076FD10E7FFF74CFC27E70010005057
:100A9800004402580010025800200258001402585E
:100AA80000040258001C025800180258000C025892
:100AB8000000025808B50A480A4B0360FF23436048
:100AC800012282600023C360026143618361C361C4
:100AD800036202F081F800B908BDFFF722FCFBE7CA
:100AE800D4000020005000522DE9F041BAB004466D
:100AF800002135913691379138913991C02204A857
:100B080002F0E9F822683B4B9A4202D03AB0BDE8BD
:100B1800F0814FF000720023CDE9042304A800F00F
:100B2800CBFF002863D1344BD3F8D42042F4804261
:100B3800C3F8D420D3F8D42002F480420092009A5B
:100B4800D3F8E02042F01002C3F8E020D3F8E02008
:100B580002F010020192019AD3F8E02042F002025A
:100B6800C3F8E020D3F8E02002F002020292029AD1
:100B7800D3F8E02042F00802C3F8E020D3F8E030D0
:100B880003F008030393039B4FF00408CDF8D480C7
:100B9800022636960024379438940927399735ADBC
:100BA8002946164801F0E4FCCDF8D48036963794EF
:100BB80038943997DFF84C802946404601F0D8FC34
:100BC8004FF46053359336963794389439972946BD
:100BD8000B4801F0CDFC4023359336963794389472
:100BE8000A2339932946404601F0C2FC8EE7FFF7F5
:100BF80098FB98E700500052004402580010025831
:100C0800000C025800040258002804DB0901C9B28C
:100C1800044B1954704700F00F000901C9B2024B88
:100C28001954704700E400E014ED00E000B500F04E
:100C38000700C0F1070CBCF1040F28BF4FF0040CEB
:100C4800031D062B0FD9C31E4FF0FF3E0EFA0CF002
:100C580021EA000199400EFA03FE22EA0E0241EA57
:100C680002005DF804FB0023EEE700000649CB68AC
:100C780023F4E0631B041B0C000200F4E060034350
:100C8800024A1A43CA60704700ED00E00000FA0506
:100C980010B50446054BD868C0F30220FFF7C6FF1D
:100CA80001462046FFF7B0FF10BD00BF00ED00E091
:100CB8000138B0F1807F0BD24FF0E0235861054A2C
:100CC800F02182F823100020986107221A617047EA
:100CD8000120704700ED00E0BFF35F8F044B5A6AB4
:100CE80022F480325A620022C3F89420704700BF71
:100CF80000ED00E040F00100054BC3F894005A6A8B
:100D080042F480325A62BFF34F8FBFF36F8F704740
:100D180000ED00E04378144AC2F89830D2F8A030C9
:100D280023F00103C2F8A0304368C2F89C30017B6D
:100D3800C37A1B0643EA0173817A43EAC143417BC4
:100D480043EA8143817B43EA4143C17B43EA014350
:100D5800417A43EA0123017A43EA410301780B43CC
:100D6800C2F8A030704700BF00ED00E0002800F096
:100D7800398338B50446036813F0010F25D0944A27
:100D8800136903F03803926A102B15D0182B0FD073
:100D98006368B3F5803F3FD0002B53D18C4B1A6862
:100DA80022F480321A601A6822F480221A6038E02D
:100DB80002F00302022AEBD1854B1B6813F4003FB3
:100DC80003D06368002B00F00F83236813F0020F31
:100DD80000F0A1807E4A1369926A13F038035AD052
:100DE800182B55D0E368002B00F0DE8078490A689C
:100DF80022F0190213430B6001F05CFD0546744BA9
:100E08001B6813F0040F40F0AD8001F053FD401B48
:100E18000228F4D90320EEE26D4A136843F48033C4
:100E2800136063682BB301F045FD0546684B1B68EA
:100E380013F4003FC9D101F03DFD401B6428F5D9EA
:100E48000320D8E2B3F5A02F09D0614B1A6822F429
:100E580080321A601A6822F480221A60E1E75C4B3B
:100E68001A6842F480221A601A6842F480321A60C2
:100E7800D7E701F01FFD0546554B1B6813F4003FEB
:100E8800A3D001F017FD401B6428F5D90320B2E276
:100E980012F0030FA6D14E4B1B6813F0040F03D0BA
:100EA800E368002B00F0A282494A136823F0190373
:100EB800E1680B43136001F0FDFC0546444B1B68D9
:100EC80013F0040F06D101F0F5FC401B0228F5D9F8
:100ED800032090E201F0F4FC41F20303984212D897
:100EE8002269402A07D03A494B6823F47C3343EA05
:100EF80002334B600FE0364A536823F47C3343F4E3
:100F08000033536007E0324A536823F0FE432169F7
:100F180043EA01635360236813F0100F00F08880E0
:100F28002B4A136903F03803926A082B56D0182B02
:100F380050D0E369002B00F0B880254A136843F0CD
:100F48008003136001F0B6FC0546214B1B6813F4BF
:100F5800807F40F0888001F0ADFC401B0228F4D966
:100F6800032048E201F0ACFC41F20303984212D896
:100F78002269402A07D016494B6823F47C3343EA98
:100F880002334B60C7E7124A536823F47C3343F4B7
:100F980000335360BFE70E4A536823F0FE432169CC
:100FA80043EA01635360B6E7094A136823F0010373
:100FB800136001F07FFC0546054B1B6813F0040F16
:100FC800A9D001F077FC401B0228F5D9032012E2D2
:100FD8000044025802F00302012AAAD1A14B1B685F
:100FE80013F4807F03D0E369802B40F0018201F085
:100FF80067FC41F20303984212D8226A202A07D0DC
:1010080098494B6823F0F84343EA82634B600FE04A
:10101800944A536823F0F84343F08043536007E051
:10102800904AD36823F07C53216A43EA0163D36072
:10103800236813F0080F60D06369002B49D0894AF0
:10104800536F43F00103536701F034FC0546854BA9
:101058005B6F13F0020F50D101F02CFC401B0228EB
:10106800F5D90320C7E101F02BFC41F203039842B4
:1010780012D8226A202A07D07A494B6823F0F8430D
:1010880043EA82634B60D3E7764A536823F0F84318
:1010980043F080435360CBE7724AD36823F07C5314
:1010A800216A43EA0163D360C2E76E4A136823F0FA
:1010B8008003136001F0FEFB05466A4B1B6813F4BE
:1010C800807FB5D001F0F6FB401B0228F5D903203C
:1010D80091E1644A536F23F00103536701F0EAFB7F
:1010E8000546604B5B6F13F0020F06D001F0E2FB80
:1010F800401B0228F5D903207DE1236813F0200F57
:1011080029D0A3699BB1574A136843F480531360ED
:1011180001F0D0FB0546534B1B6813F4005F1AD14E
:1011280001F0C8FB401B0228F5D9032063E14D4AB2
:10113800136823F48053136001F0BCFB0546494B48
:101148001B6813F4005F06D001F0B4FB401B0228B3
:10115800F5D903204FE1236813F0040F21D1636A06
:10116800002B00F047813F4A126902F03802182A22
:1011780000F0EE80022B79D03A4A136823F080738E
:10118800136001F097FB0446364B1B6813F0007F91
:1011980000F0DC8001F08EFB001B0228F4D903204C
:1011A80029E1314A136843F48073136001F082FB2C
:1011B80005462D4B1B6813F4807F06D101F07AFB9E
:1011C800401B6428F5D9032015E1A368012B0AD038
:1011D8000BBB244B1A6F22F001021A671A6F22F018
:1011E80004021A6704E01F4A136F43F001031367F0
:1011F800A36833B301F05EFB05461A4B1B6F13F06F
:10120800020FACD101F056FB401B41F288339842E3
:10121800F3D90320EFE0052B09D0124B1A6F22F007
:1012280001021A671A6F22F004021A67E0E70D4BF1
:101238001A6F42F004021A671A6F42F001021A6725
:10124800D6E701F037FB0546064B1B6F13F0020F7C
:1012580085D001F02FFB401B41F288339842F3D927
:101268000320C8E00044025800480258694A13683D
:1012780023F08073136001F01DFB0546654B1B6866
:1012880013F0007F06D001F015FB401B0228F5D9AA
:101298000320B0E05F4B996A5F4A0A40A16AE06A9E
:1012A80041EA00110A439A62226B013AC2F308022A
:1012B800616B0139490289B20A43A16B01390904FA
:1012C80001F4FE010A43E16B0139090601F0FE4110
:1012D8000A431A63DA6A22F00102DA625A6B6FF380
:1012E800CF02A16C42EAC1025A63DA6A22F00C0208
:1012F800216C0A43DA62DA6A22F00202616C0A435C
:10130800DA62DA6A42F48032DA62DA6A42F4003285
:10131800DA62DA6A42F48022DA62DA6A42F00102B8
:10132800DA621A6842F080721A6001F0C3FA044661
:10133800384B1B6813F0007F06D101F0BBFA001B85
:101348000228F5D9032056E0002054E0002052E09E
:10135800304A916A106B012B4ED001F00303A26A48
:1013680093424BD1C1F30511E36A994248D1C0F3C6
:101378000802236B013B9A4244D1C0F34622636BB7
:10138800013B9A4240D1C0F30642A36B013B9A420B
:101398003CD1C0F30660E36B013B984238D11D4B4A
:1013A8005B6BC3F3CC03A26C9A4201D1002022E00C
:1013B800184AD36A23F00103D36201F07BFA054689
:1013C80001F078FAA842FBD0124A536B6FF3CF03AF
:1013D800A16C43EAC1035363D36A43F00103D362A8
:1013E800002008E001207047012004E0012002E00D
:1013F800012000E0002038BD0120FCE70120FAE7C9
:101408000120F8E70120F6E70120F4E70120F2E7E0
:101418000120F0E7004402580CFCFFFF754B1B69E4
:1014280003F03803102B00F0DE80182B0FD0002BB0
:1014380040F0DB806F4B1B6813F0200F00F0D78063
:101448006C4B1B68C3F3C1036B48D840704710B49A
:10145800684B9A6A02F003029C6AC4F30510D96AC1
:1014680001F001015B6BC3F3CC0301FB03F307EE4F
:10147800903AF8EE677A14F47C7F77D0012A4AD044
:10148800022A76D0002A40F091805A4B1B6813F04C
:10149800200F23D057490A68C2F3C102564BD340E4
:1014A80007EE103AF8EE476A07EE100AB8EE476AF8
:1014B80086EE867A0B6BC3F3080306EE903AF8EED5
:1014C800666A9FED4E6A67EE867A76EEA77AF7EE41
:1014D800006A77EEA67A27EE277A38E007EE100A38
:1014E800F8EE476A9FED466A86EE267A414B1B6BFB
:1014F800C3F3080306EE903AF8EE666A9FED3F6A7A
:1015080067EE867A76EEA77AF7EE006A77EEA67A25
:1015180027EE277A1BE007EE100AF8EE476A9FEDE0
:10152800396A86EE267A334B1B6BC3F3080306EE43
:10153800903AF8EE666A9FED316A67EE867A76EE43
:10154800A77AF7EE006A77EEA67A27EE277A294B74
:101558001B6BC3F34623013307EE903AF8EE677A24
:10156800C7EE276AFCEEE67A17EE900A5DF8044BA0
:10157800704707EE100AF8EE476A9FED236A86EE79
:10158800267A1C4B1B6BC3F3080306EE903AF8EE61
:10159800666A9FED1A6A67EE867A76EEA77AF7EEA4
:1015A800006A77EEA67A27EE277AD0E707EE100AC8
:1015B800F8EE476A9FED136A86EE267A0D4B1B6B91
:1015C800C3F3080306EE903AF8EE666A9FED0B6ADD
:1015D80067EE867A76EEA77AF7EE006A77EEA67A55
:1015E80027EE277AB3E70948704709487047024849
:1015F800704700BF004402580090D0030000003933
:101608000024744C0024744A20BCBE4B40787D01F1
:1016180000093D00002800F0328170B50D460446EF
:101628009B4B1B6803F00F038B420BD2984A13683D
:1016380023F00F030B431360136803F00F038B426F
:1016480040F01F81236813F0040F0CD02269914BDE
:101658009B6903F070039A4205D98E498B6923F080
:1016680070031A438A61236813F0080F0CD062696B
:10167800884BDB6903F070039A4205D98549CB6929
:1016880023F070031A43CA61236813F0100F0CD0BB
:10169800A269804BDB6903F4E0639A4205D97D496E
:1016A800CB6923F4E0631A43CA61236813F0200F5F
:1016B8000CD0E269774B1B6A03F070039A4205D994
:1016C80074490B6A23F070031A430A62236813F003
:1016D800020F0CD0E2686F4B9B6903F00F039A422C
:1016E80005D96C498B6923F00F031A438A61236873
:1016F80013F0010F41D0674A936923F47063A1681E
:101708000B4393616368022B0AD0032B27D0012B6C
:101718002CD0604A126812F0040F06D10120ADE007
:10172800126812F4003F00F0AE805A490A6922F0AC
:10173800070213430B6101F0BDF80646554B1B69C0
:1017480003F038036268B3EBC20F16D001F0B2F8A9
:10175800801B41F288339842F0D903208EE04D4A2D
:10176800126812F0007FE0D1012087E0494A126830
:1017780012F4807FD9D1012080E0236813F0020F92
:101788000CD0E268434B9B6903F00F039A4205D2E1
:1017980040498B6923F00F031A438A613C4B1B684D
:1017A80003F00F03AB420AD9394A136823F00F0339
:1017B8002B431360136803F00F03AB4265D1236812
:1017C80013F0040F0CD02269324B9B6903F07003AD
:1017D8009A4205D22F498B6923F070031A438A6114
:1017E800236813F0080F0CD062692A4BDB6903F0F9
:1017F80070039A4205D22749CB6923F070031A4334
:10180800CA61236813F0100F0CD0A269214BDB6961
:1018180003F4E0639A4205D21E49CB6923F4E063DE
:101828001A43CA61236813F0200F0CD0E269194BE0
:101838001B6A03F070039A4205D216490B6A23F01B
:1018480070031A430A62FFF7E9FD12498B69C3F373
:101858000323114AD35C03F01F03D8408B6903F0BC
:101868000F03D35C03F01F0320FA03F30B4A136042
:101878000B4B18600B4B186800F0BAFF70BD0120C5
:1018880070470120FAE70120F8E70120F6E700BFDA
:101898000020005200440258502D0008000000208B
:1018A800040000200C000020404B9B6A03F0030357
:1018B800032B79D070B505460E463C4A136823F0D1
:1018C8008063136000F0F6FF0446384B1B6813F082
:1018D800006F06D000F0EEFF031B022BF5D90320A2
:1018E80070BD324B9A6A22F47C32296842EA01328E
:1018F8009A626A68013AC2F30802A9680139490282
:1019080089B20A43E9680139090401F4FE010A436E
:1019180029690139090601F0FE410A439A63DA6A26
:1019280022F0C00269690A43DA62DA6A22F0200208
:10193800A9690A43DA62DA6A22F01002DA62DA6B1B
:101948006FF3CF02E96942EAC102DA63DA6A42F068
:101958001002DA62C6B91A46DB6A43F40023D3627E
:10196800124A136843F08063136000F0A3FF044633
:101978000E4B1B6813F0006F14D100F09BFF001B87
:101988000228F5D90320ABE7012E05D0074AD36A10
:1019980043F40013D362E3E7044AD36A43F48013A1
:1019A800D362DDE700209BE701207047004402581E
:1019B800404B9B6A03F00303032B79D070B50546AF
:1019C8000E463C4A136823F08053136000F072FF00
:1019D8000446384B1B6813F0005F06D000F06AFF1E
:1019E800031B022BF5D9032070BD324B9A6A22F0F3
:1019F8007C72296842EA01529A626A68013AC2F323
:101A08000802A9680139490289B20A43E96801391B
:101A1800090401F4FE010A4329690139090601F0A4
:101A2800FE410A431A64DA6A22F4406269690A4389
:101A3800DA62DA6A22F40072A9690A43DA62DA6AB7
:101A480022F48072DA625A6C6FF3CF02E96942EAD3
:101A5800C1025A64DA6A42F48072DA62C6B91A4676
:101A6800DB6A43F48003D362124A136843F080535D
:101A7800136000F01FFF04460E4B1B6813F0005F55
:101A880014D100F017FF001B0228F5D90320ABE79B
:101A9800012E05D0074AD36A43F08073D362E3E787
:101AA800044AD36A43F40003D362DDE700209BE7CE
:101AB8000120704700440258F8B50446036813F043
:101AC800006F30D0836EB3F5001F26D00ED8ABB1AF
:101AD800B3F5801F07D102210830FFF7E5FE054660
:101AE80095B12E4621E0012635461EE0B3F5401F8C
:101AF80001D1002508E00126354616E09A4AD36A46
:101B080043F40033D3620025974A136D23F440133E
:101B1800A16E0B431365002607E002212830FFF76A
:101B280047FF0546DCE700263546236813F4807F27
:101B380014D0A36D042B31D8DFE803F00322290861
:101B48000800894AD36A43F40033D3624DBB864AFE
:101B5800136D23F00703A16D0B431365236813F47A
:101B6800007F3FD0E36D802B2ED01FD833B3402B9E
:101B780019D1002104F10800FFF796FE054629E077
:101B8800002104F10800FFF78FFE0546DEE700217B
:101B980004F12800FFF70CFF0546D7E70126354674
:101BA800DCE72E46DAE7012635461BE0C02B11D0CC
:101BB800B3F5807F0ED00126354613E06A4AD36A12
:101BC80043F40033D36205E0002104F12800FFF755
:101BD800EFFE0546DDB9644A136D23F4E073E16D49
:101BE8000B431365236813F4806F33D0D4F8A830FF
:101BF800B3F5800F1FD00FD8BBB1B3F5001F08D1C4
:101C0800002104F10800FFF74FFE054619E02E46B3
:101C1800E8E7012635461DE0B3F5C00F11D0B3F54E
:101C2800000F0ED00126354614E04F4AD36A43F41C
:101C38000033D36205E0002104F12800FFF7B8FE65
:101C48000546E5B9484A936D23F46003D4F8A81013
:101C58000B439365236813F4006F34D0D4F8AC3089
:101C6800B3F1007F1FD00FD8BBB1B3F1807F08D18B
:101C7800002104F10800FFF717FE054619E02E467B
:101C8800E8E7012635461EE0B3F1407F11D0B3F1F5
:101C9800806F0ED00126354615E0334AD36A43F4E7
:101CA8000033D36205E0002104F12800FFF780FE2D
:101CB8000546002D33D12C4A936D23F0E063D4F808
:101CC800AC100B439365236813F0007F13D0E36CCB
:101CD800202B2ED028D833B1102B22D1224AD36AF8
:101CE80043F40033D3625DBB1F4AD36C23F0300347
:101CF800E16C0B43D364236813F4805F46D0236EF2
:101D0800B3F5005F32D020D843B3B3F5805F19D163
:101D1800002104F10800FFF7C7FD05462CE02E4618
:101D2800D1E701263546E6E7302BDCD001263546DB
:101D3800E1E7022104F10800FFF7B6FD0546D2E706
:101D48002E46D8E70126354620E0B3F5405F13D08C
:101D5800B3F5804F10D00126354617E0024AD36A02
:101D680043F40033D36207E000440258002104F131
:101D78002800FFF71DFE05463DB9704A136D23F490
:101D8800E043216E0B43136500E02E46236813F4ED
:101D9800005F17D0636EB3F5003F4FD042D843B110
:101DA800B3F5803F3BD1012104F10800FFF77CFD2A
:101DB8000546002D49D1614A136D23F4E023616E75
:101DC8000B431365236813F4804F19D0D4F8B0304F
:101DD800B3F1005F4AD03DD843B1B3F1805F36D14B
:101DE800012104F10800FFF75FFD0546002D44D1ED
:101DF800524A936D23F0E043D4F8B0100B43936537
:101E0800236813F4004F47D0236FB3F1805F36D0B7
:101E1800B3F1005F4BD0BBB3012635463CE0012649
:101E28003546CFE7B3F5802FC3D0B3F5A02FC0D088
:101E3800B3F5403FBDD001263546C3E7012104F183
:101E48002800FFF7B5FD0546B3E72E46BAE7012699
:101E58003546D5E7B3F1804FC8D0B3F1A04FC5D010
:101E6800B3F1405FC2D001263546C9E7012104F12C
:101E78002800FFF79DFD0546B8E72E46C0E72F4A24
:101E8800D36A43F40033D362C5B92C4A136D23F0E7
:101E98004053216F0B431365236813F0807F1CD0D8
:101EA800A36C032B44D8DFE803F0100B3C1001218E
:101EB80004F10800FFF7F8FC0546E5E72E46EBE7D6
:101EC8001E4AD36A43F40033D362A5BB1B4AD36CC2
:101ED80023F00303A16C0B43D364236813F4800F2E
:101EE8002ED1236813F0010F00F0A680E36F282B92
:101EF80000F2A080DFE803F08E9E9E9E9E9E9E9E2E
:101F0800889E9E9E9E9E9E9E979E9E9E9E9E9E9E06
:101F18008E9E9E9E9E9E9E9E8E9E9E9E9E9E9E9EF9
:101F28008E00022104F10800FFF7BEFC0546CCE74D
:101F380001263546D1E72E46CFE700BF00440258B8
:101F48005A4A136843F48073136000F0B3FC0746E1
:101F5800564B1B6813F4807F05D100F0ABFCC01B07
:101F68006428F5D90325002D4AD1514B1B6FD4F8AD
:101F7800B420534013F4407F0CD04D4B1A6F22F419
:101F88004072196F41F480311967196F21F480315B
:101F980019671A67D4F8B430B3F5807F15D08DBBB4
:101FA800D4F8B43003F44072B2F5407F1ED0404AF2
:101FB800136923F47C5313613D490B6FD4F8B420A3
:101FC800C2F30B0213430B678BE700F073FC074661
:101FD800374B1B6F13F0020FE1D100F06BFCC01BF5
:101FE80041F288339842F3D90325D8E7304802698B
:101FF80022F47C522F4901EA131313430361DBE7F0
:102008002E466EE72E466CE7012104F10800FFF723
:102018004BFC0546E5B9264A536D23F03803E16FBA
:102028000B43536508E0012104F12800FFF7C0FCC9
:102038000546EFE701263546236813F0020F17D04F
:10204800A36F052B2CD8DFE803F00B05240B0B0B33
:102058002E46F1E7012104F10800FFF725FC0546AB
:102068000DBB134A536D23F00703A16F0B43536550
:10207800236813F0040F30D0D4F89430052B00F205
:102088000F81DFE813F01F00190006011F001F0071
:102098001F00012104F12800FFF78AFC0546DFE74D
:1020A80001263546E4E72E46E2E700BF004802581D
:1020B80000440258CFFFFF00012104F10800FFF798
:1020C800F3FB0546002D40F0EE80B64A936D23F0F1
:1020D8000703D4F894100B439365236813F0200F7B
:1020E8001DD0D4F89030B3F1005F00F0F08000F21A
:1020F800DF804BB1B3F1805F40F0D780002104F15D
:102108000800FFF7D1FB0546002D40F0E780A54AFF
:10211800536D23F0E043D4F890100B4353652368C4
:1021280013F0400F1DD0D4F89C30B3F5006F00F0C9
:10213800E98000F2D8804BB1B3F5806F40F0D080D1
:10214800002104F10800FFF7AFFB0546002D40F021
:10215800E080944A936D23F4E053D4F89C100B4329
:102168009365236813F0800F1DD0D4F8A030B3F521
:10217800804F00F0E28000F2D1804BB1B3F5005FF0
:1021880040F0C980002104F10800FFF78DFB0546E7
:10219800002D40F0D980834A936D23F46043D4F82E
:1021A800A0100B439365236813F0080F0DD0D4F8E3
:1021B8008430B3F5805F00F0C9807A4A536D23F408
:1021C8004053D4F884100B435365236813F0100F61
:1021D8000DD0D4F89830B3F5807F00F0C180714AF3
:1021E800936D23F44073D4F898100B4393652368D8
:1021F80013F4002F1CD0D4F8A430B3F5803F00F0BE
:10220800B980B3F5003F08D0002B40F0BA80002118
:1022180004F10800FFF748FB0546002D40F0B480A4
:10222800604A936D23F44033D4F8A4100B439365AC
:10223800236813F4802F1CD0D4F88830B3F5001F1E
:1022480000F0A480B3F5401F08D0B3F5801F40F01C
:10225800A480544AD36A43F40033D362002D40F07B
:102268009F80504A536D23F44013D4F888100B43D1
:102278005365236813F4803F00F0AC80236D002B76
:1022880000F09280B3F5803F00F09C80012635462F
:10229800A0E0012104F12800FFF78AFB054611E7B9
:1022A8000126354619E72E4617E70126354636E753
:1022B800B3F1804F3FF428AFB3F1A04F3FF424AF00
:1022C800B3F1405F3FF420AF0126354627E70221EE
:1022D80004F12800FFF76CFB054615E72E461EE7BC
:1022E800012635463DE7B3F5805F3FF42FAFB3F5E0
:1022F800A05F3FF42BAFB3F5406F3FF427AF012643
:1023080035462EE7022104F12800FFF751FB054668
:102318001CE72E4625E70126354644E7B3F5004F6E
:102328003FF436AFB3F5204F3FF432AFB3F5C04FAB
:102338003FF42EAF0126354635E7022104F1280087
:10234800FFF736FB054623E72E462CE7022104F16A
:102358002800FFF72DFB00283FF42FAF01262CE7BC
:10236800022104F12800FFF723FB00283FF437AFD0
:10237800012634E7022104F12800FFF719FB05467E
:102388004BE70126354653E72E4651E7012104F174
:102398002800FFF70DFB054660E70126354668E78C
:1023A8002E4666E700440258704AD36A43F4003365
:1023B800D36275B96D4AD36C23F48033216D0B4316
:1023C800D36407E0022104F10800FFF76DFA05461F
:1023D800EFE72E46236813F0005F11D1236813F44A
:1023E800003F28D0D4F88030B3F5807F14D010D9BE
:1023F800B3F5007F15D0B3F5407F12D001261AE05F
:10240800022104F12800FFF7D3FA0028E6D00126BC
:10241800E4E733B101260EE0544AD36A43F40033AB
:10242800D362002D69D1514A536D23F44073D4F817
:1024380080100B435365236813F4801F06D04B4A62
:10244800136D23F00043616F0B431365236813F08A
:10245800805F07D0454A136923F48043D4F8B81045
:102468000B431361236813F4001F06D03F4A136D12
:1024780023F08073E16E0B431365236813F0804FDC
:1024880009D03A4B1A6922F400421A611A69D4F841
:10249800BC100A431A612368002B06DA334AD36C4E
:1024A80023F04053616D0B43D364236813F4000F8A
:1024B80007D02E4A536D23F44003D4F88C100B43F5
:1024C8005365636813F0010F19D1636813F0020FA5
:1024D8001ED1636813F0040F23D1636813F0080F4B
:1024E80028D1636813F0100F2DD1636813F0200F03
:1024F80032D106B101263046F8BD2E469BE70021B1
:1025080004F10800FFF7D0F90028DED00646DCE722
:10251800012104F10800FFF7C7F90028D9D00646C1
:10252800D7E7022104F10800FFF7BEF90028D4D04C
:102538000646D2E7002104F12800FFF739FA0028FF
:10254800CFD00646CDE7012104F12800FFF730FA85
:102558000028CAD00646C8E7022104F12800FFF780
:1025680027FA0028C5D00126C5E700BF0044025855
:10257800F0B583B000236BE085685E000324B440A7
:1025880025EA0405CC68B4402C438460456825EAF4
:102598000C054C68C4F300149C402C43446069E06B
:1025A800DD08083550F8254003F0070C4FEA8C0C7D
:1025B8004FF00F0E0EFA0CFE24EA0E0E0C6904FA08
:1025C8000CF444EA0E0440F825406BE0092400E0CE
:1025D800002404FA0EF42C430CF1020C694D45F862
:1025E8002C404FF0B0442568D44325EA02064F68D2
:1025F80017F4801F01D042EA05064FF0B0452E605F
:102608006D6804EA05064F6817F4001F01D042EA16
:1026180005064FF0B0456E60D5F8845004EA05060B
:102628004F6817F4003F01D042EA05064FF0B04565
:10263800C5F88460D5F880502C404E6816F4803F69
:1026480001D042EA05044FF0B042C2F8804001339D
:102658000A6832FA03F400F092804FF0010C0CFA89
:1026680003FC1CEA0202F2D04C6804F00304013CAB
:10267800012C81D94C6804F00304032C0CD0C468E5
:102688005D004FF0030C0CFA05FC24EA0C0C8C6876
:10269800AC4044EA0C04C4604C6804F00304022C07
:1026A8003FF47EAF04684FEA430E4FF0030C0CFA78
:1026B8000EFC24EA0C0C4C6804F0030404FA0EF433
:1026C80044EA0C0404604C6814F4403FBFD02E4C1C
:1026D800D4F8F45045F00205C4F8F450D4F8F440A6
:1026E80004F002040194019C4FEA930C0CF10205DA
:1026F800244C54F8255003F0030E4FEA8E0E0F2495
:1027080004FA0EF425EA0405204CA0423FF460AF19
:1027180004F58064A04222D004F58064A04220D051
:1027280004F58064A0421ED004F58064A0421CD049
:1027380004F58064A0421AD004F58064A04218D041
:1027480004F58064A04216D004F58064A04214D039
:1027580004F58064A0423FF439AF0A2439E7012424
:1027680037E7022435E7032433E7042431E7052457
:102778002FE706242DE707242BE7082429E703B0D1
:10278800F0BD00BF00040058004402580000025881
:102798000AB181617047090481617047134BDB6896
:1027A80013F0040F07D1114BDB6803F007038342D2
:1027B8001AD00120704710B50C4AD36823F00703DC
:1027C8000343D36000F076F80446084B5B6813F4C3
:1027D800005F07D100F06EF8001BB0F57A7FF4D9DE
:1027E800012000E0002010BD00207047004802587A
:1027F800104B1B780BB90120704710B504464FF4F5
:102808007A70B0FBF3F30C4A1068B0FBF3F0FEF7F4
:102818004FFA68B90F2C01D901200AE0002221469D
:102828004FF0FF30FEF734FA044B1C60002000E044
:10283800012010BD08000020040000200C0000202A
:1028480010B50320FEF712FAFEF7E8FD0F498B6971
:10285800C3F303230E4AD35C03F01F03D8408B69EC
:1028680003F00F03D35C03F01F0320FA03F3094AB4
:102878001360094B18600F20FFF7BAFF10B101244D
:10288800204610BD0446FDF7C1FDF9E70044025893
:10289800502D00080000002004000020034B1B7886
:1028A800034A11680B441360704700BF08000020FA
:1028B80020010020014B1868704700BF200100204C
:1028C800014B1868000C70470010005C70B54D682B
:1028D8000368DC68C4F30B4425444FEAC21C03EBCD
:1028E800C213D3F8884004F47044C3F888400B68D6
:1028F8000468E668C6F30B4E7344013304EBC21454
:1029080043EA0543C4F88830CD680368DC68C4F33B
:102918000A0405EB040E03EBC213D3F88C4004F44D
:102928007044C3F88C408B680468E568C5F30A05F1
:102938002B44013304EBC21443EA0E43C4F88C3031
:10294800036803EBC213D3F8944024F00704C3F8D8
:102958009440036803EBC2130C69C3F8944091F8E0
:10296800316091F832508C6991F8303043EA06238F
:1029780043EA0543056805EBC21E43EA0463CEF843
:102988009C300EF1840E036803EBC213D3F8984011
:1029980024F0FF04C3F89840036803EBC2134C69A2
:1029A800C3F89840036803EBC213D3F8A050294C2E
:1029B8002C40C3F8A040CC69036803EBC2130D6A2E
:1029C8002C43C3F8A040036803EBC2134A6AC3F858
:1029D800AC200B69072B05D8DFE803F03A32343610
:1029E80034040438012503686344D3F8B02002F0A6
:1029F800E022C3F8B0208B6A05FB03F44B680A6831
:102A08009B1A05FB03F307330268624443EA044355
:102A1800C2F8B03003686344D3F8B4206FF30A02F5
:102A2800C3F8B42003686344CA6AC3F8B4200368CF
:102A38006344D3F8842042F00102C3F8842070BDB7
:102A48000325D0E70225CEE70225CCE70225CAE711
:102A58000425C8E7F8F8FFFF002859D010B5044648
:102A680090F8A130002B4ED0022384F8A1302268C0
:102A7800936923F07043936121688A696368A06849
:102A88000343E06803432069034313438B6161698F
:102A9800A369226843EA01439360E169236A2268D3
:102AA80043EA0143D360616AA36A226843EA0143A7
:102AB8001361E16A236B226843EA0143536194F886
:102AC800350094F836301B042168CA6A02F07F4248
:102AD800CA622168CA6A43EA002394F834000343AF
:102AE8001343CB622268536B43F006035363226897
:102AF800936943F0010393610020C4F8A400012303
:102B080084F8A13010BD80F8A030FDF7BBFEABE71C
:102B180001207047F8B590F8A030012B2CD004465E
:102B28000D461646012780F8A070022380F8A130D0
:102B38004FF0340C0CFB020C0CF1380C8E46BEE83E
:102B48000F00ACE80F00BEE80F00ACE80F00BEE8CD
:102B58000F00ACE80F00DEF80030CCF80030324649
:102B680029462046FFF7B2FE23685F6284F8A17009
:102B7800002084F8A000F8BD0220FCE72DE9F84306
:102B880005460F4616469946DDF820802B689C6856
:102B980004EA070CBCF1000C18BF4FF0010CB44557
:102BA80014D0B8F1FF3FF1D0FFF784FEA0EB090085
:102BB800404502D8B8F1000FE8D1042385F8413028
:102BC8006B6C43F001036B64012000E00020BDE85A
:102BD800F88381647047000070B582B00446FFF73F
:102BE80069FE002C45D0064694F84130002B37D0BA
:102BF80025682A6822F4F852A168013942EA0122BC
:102C08002A60A36C00933346002220212046FFF758
:102C1800B5FF18BB21680B68174A1A406568E36856
:102C280043EA0563E5692B43256A2B431A430A6087
:102C380021684A68114B13402569626942EA0542D6
:102C4800A5692A4313434B602268136843F00103C4
:102C5800136000236364012384F8413002B070BD1F
:102C68002046FDF741FF41F288312046FFF7B1FFCA
:102C7800BEE70120F2E700BF2FFFFF00FEF8E0FFEC
:102C8800DFF838D0FDF738FCFDF7D2FB0C480D49CA
:102C98000D4A002302E0D458C4500433C4188C42AF
:102CA800F9D30A4A0A4C002301E013600432A24215
:102CB800FBD300F019F8FDF78FFB704700000220E6
:102CC8000000002010000020682D000810000020DF
:102CD80024010020FEE702440346934200D17047D6
:102CE80003F8011BF9E7000070B50D4B0D4D5B1B98
:102CF8009C100026A64209D100F01AF80A4D0B4B89
:102D08005B1B9C100026A64205D170BD55F8043BFC
:102D180098470136EEE755F8043B98470136F2E745
:102D2800602D0008602D0008602D0008642D000843
:102D3800F8B500BFF8BC08BC9E467047F8B500BFA0
:082D4800F8BC08BC9E46704770
:102D5000000000000000000001020304060708094B
:042D6000BD020008A8
:042D640099020008C8
:102D68000090D0030090D003010000001000000084
:0400000508002C893A
:00000001FF
